:020000021000EC
:10B000000040002021B2010061B2010063B20100E2
:10B010000000000000000000000000000000000030
:10B0200000000000000000000000000065B2010008
:10B03000000000000000000067B2010069B20100DA
:10B0400079C201006BB201006BB201006BB201006A
:10B050006BB2010000000000FDC701006BB20100EF
:10B060006BB201006BB201006BB201006BB2010068
:10B070006BB201006BB201006BB201006BB2010058
:10B080006BB20100D9B701006BB201006BB20100D5
:10B09000B5B801006BB20100FDC101006BB2010047
:10B0A0006BB201006BB20100000000000000000064
:10B0B0000000000000000000000000000000000090
:10B0C00010B5064C2378002B07D1054B002B02D07E
:10B0D000044800E000BF0123237010BD6C20002055
:10B0E00000000000B4F50100084B10B5002B03D0A0
:10B0F0000749084800E000BF07480368002B00D15B
:10B1000010BD064B002BFBD09847F9E7000000006C
:10B1100070200020B4F5010058200020000000003D
:10B12000164B002B00D1144B9D46402292029A1AD6
:10B13000924600218B460F461348144A121A00F01B
:10B1400065F80F4B002B00D098470E4B002B00D01A
:10B1500098470020002104000D000D48002802D06F
:10B160000C4800E000BF00F02DF82000290000F09E
:10B1700001F900F011F8C04600000800004000206E
:10B1800000000000000000006C200020F0240020DF
:10B190000000000000000000084B10B50400002B68
:10B1A00002D0002100E000BF054B1868836A002B25
:10B1B00000D09847200000F031F8C04600000000A1
:10B1C00008F4010070B500260C4D0D4C641BA41052
:10B1D000A64209D1002604F00BF90A4D0A4C641B63
:10B1E000A410A64205D170BDB300EB5898470136B4
:10B1F000EEE7B300EB5898470136F2E75020002005
:10B2000050200020502000205420002003008218ED
:10B21000934200D1704719700133F9E7FEE7C04649
:10B2200003210A4802680A430260094802680A4387
:10B2300002600849084A094B9B1A03DD043BC858C1
:10B24000D050FBDC00F012F8FFF76AFF2405004045
:10B2500054050040C0F50100E81F00206C200020CC
:10B26000FEE7FEE7FEE7FEE7FEE7FEE72E4B1B7874
:10B27000012B00D070472D4B1B681B07FAD1F02221
:10B280002B4B1B68134027D12A4B1B6813422BD032
:10B29000264B1B681B07EDD1F022254B1B68134082
:10B2A000402B2DD0F022224B1B681340A02B01D045
:10B2B000D02BDFD1F0231F4A12681A42DAD11E4A7E
:10B2C0001368012B04D01D4B13601368012BFCD1B4
:10B2D000C0221B4B1A60CDE7102B01D0302BDBD1E5
:10B2E000144B1B681342D7D1164A174B1A608022A1
:10B2F000164B12021A600C4B1B78012BC8D0B9E711
:10B300000C4B1B681342CDD1C12380220121DB00ED
:10B31000D205D150044B1B78012BABD1034B1B68DA
:10B320001B07BFD0A6E7C046E00F00F0E40F00F017
:10B33000E80F00F0EC0F00F000EC06407593000001
:10B3400014EC0640DFFF07C004050040186C004005
:10B3500048DF70477047C046BFF34F8F034A044B26
:10B36000DA60BFF34F8FC046FDE7C0460400FA0520
:10B3700000ED00E0F0B53C4B3C4E1B7889B03370DB
:10B38000FF2B01D1FE3B3370394B3A4F1B681A0A31
:10B39000F2701A0C3371B2701B0E374A7370137847
:10B3A0003B700E2B5CD85368344C190AE370A170C3
:10B3B000190C1B0E617023709368190AE371A17157
:10B3C000190C1B0E61712371D368190AE372A17203
:10B3D000190C1B0E61722372136923730023284A10
:10B3E0000521002000F0D2FC002801D000F070F907
:10B3F000244800F02DF900222349012003F0F0F841
:10B40000002801D000F064F902AD182200212800C4
:10B41000FFF7FCFE6423AB823B7805223100280055
:10B420006B7103F0DBFF0E2021003A78684403F0D3
:10B43000D5FF6A4606AB03CB03C2043502980ECD96
:10B4400000F026F800F0A4F8022002F0BBFF00286C
:10B4500003D1FFF77DFF0028FBD000F039F9F8E7B2
:10B460000123064C3B70B9E780100010002100203A
:10B47000841000104C2000208810001008210020AB
:10B480008820002055B30100CD0C000073DF704709
:10B4900084B030B59BB006AD1E901F912092002164
:10B4A000142228002193FFF7B1FE02232B707D3375
:10B4B000AB7102AB9C46112005221EA9604403F02B
:10B4C0008DFF02AB9C46762117200BAC61440D2208
:10B4D000604403F083FF3C2200212000FFF796FE2A
:10B4E000274B284A1B680595019302930123238269
:10B4F00002AB636103AB1A80A3621EAA52790021DA
:10B5000007329A802C230122E2540023200023706A
:10B510000633E37002F0C2FB002801D000F0D8F837
:10B52000194C182200212000FFF770FE002503238C
:10B53000FA202370656025721EAB9B8A80005843F9
:10B54000124903F05FFE1EAB9A7D208265820120C6
:10B550001500237D054083432B43022551080140FC
:10B560004900AB430B4304219208024092008B43F5
:10B57000134323751BB030BC08BC04B01847C04649
:10B580000CF401006FFEFFFF182100207102000083
:10B5900010B5084C2378002B00D010BD0648FFF7EB
:10B5A00075FF002802D101232370F6E700F090F820
:10B5B000F9E7C046152100201821002076DF7047EA
:10B5C000A8DF704767DF704710B501F063FF10BD5B
:10B5D00010B5040084B001F04BFB200001F0D2FD57
:10B5E0001A4B1B68002B01D02000984723883A2B68
:10B5F00024D0512B0CD0022B01D004B010BDA08858
:10B600000021FFF7DFFF0028F7D000F061F8F4E732
:10B61000A379002BF1D0A27B043A022AEDD8022BA9
:10B6200000D001236A461370C1235B009380A08879
:10B630006946FFF7C5FF0028DFD0E6E7A0881321A1
:10B64000FFF7BCFF0028D8D0DFE7C04678210020F4
:10B6500000B51A4B89B01860194B48221B6819496C
:10B660000193029302A8002300F062FD002822D17A
:10B6700003AA0121002000F0D9FD002818D103A859
:10B6800000F0ECFD002810D10F4800F0A3FD0028C9
:10B6900008D10E4800F0A8FD002801D000F018F8ED
:10B6A00009B000BD00F014F8F3E700F011F8EBE783
:10B6B00000F00EF8E3E700F00BF8D9E7782100205E
:10B6C00010F4010030210020D1B50100C9B50100FE
:10B6D000002300B585B001AA9060002103481380C3
:10B6E0005360FFF739FE05B000BDC04601400000C1
:10B6F000F0B5EFF3108172B60A4B5A68002A0DD1EB
:10B7000001248025084E5C607459084F3C401C6041
:10B7100077510270002900D162B6F0BD0123037099
:10B72000F8E7C046E824002000E100E0FC06FFBC8A
:10B7300010B5084B5A68002A0BD0002809D1EFF346
:10B74000108272B604491C680C605860002A00D14F
:10B7500062B610BDE824002000E100E0F0B500284A
:10B760001EDB1B4A03249446FF2217008308C026D1
:10B77000C0B20440E4008901A7400A40A2409B00F7
:10B780006344B6009D59BD432A439A511F23C021EB
:10B7900018401E3B83400E4A490053501360F0BDD1
:10B7A000FF240C4A0325944622000F23C0B2054013
:10B7B000ED008901AA400C40AC400340083B9B08C7
:10B7C0009B006344DE6996433443DC61DEE7C04698
:10B7D00000E100E000ED00E0A021F0B50023C64646
:10B7E0002B4A490000B55350043153500431535093
:10B7F000043153504C39535004315350254B1B687E
:10B80000002B35D0244900265458244A244F12686E
:10B81000A41A00222402240A904602E0002D18D027
:10B820002B001A68A24214D8A41AB6181A7CDD6933
:10B83000002AF3D0424699691A745A693B68002B72
:10B8400019D0100098470028E8D0FFF741FF002DDD
:10B85000E6D11449144A0B7812789A420ED0134A52
:10B860009B009E5080218023114A49035B00D150E8
:10B8700004BC9046F0BD08009047CFE70132D3B238
:10B88000022B01D00B70EAE700230B70E7E7C046FC
:10B89000001001409C210020040500009821002098
:10B8A0007C21002095210020942100208C21002063
:10B8B00000E100E0F0B55746DE464E464546E0B5AD
:10B8C000AE4BAF4A1B68AF499A46097813788BB0E4
:10B8D000994200D118E10133DBB2022B00D117E10C
:10B8E0001370A94A9B009E5853469B191B02A34AFA
:10B8F0001B0A136001230693A44B00201B789B4670
:10B90000A34B5A461B689846A04B45465C785B683B
:10B91000474603939D4B9B780493984B1B68099370
:10B920009C4B1B7807930023089305930193A24235
:10B930001CD00399530089469B1804990132DB00FF
:10B94000D2B24B448A4200D1D4E01978022900D106
:10B95000A0E00329EBD1002FE9D03874FF69002F54
:10B96000FBD1012300250193A242E2D1019B914624
:10B970009C46059B002B00D0D9E0089B002B02D0F1
:10B980007E4B099A1A606346002B01D0804B1D60E4
:10B99000069B002B00D067E14346DB1B5A1E9341F8
:10B9A0000025DBB206937B4B3E001B780793734B5D
:10B9B0001B689846764B1B680193002302930593FE
:10B9C0009C46754B9A46002D28D06B68A9682C00C0
:10B9D000ED6942469A1A1202120A524551D852187B
:10B9E000226063466360A360012323746346E361BE
:10B9F000002E00D1BAE031683000914205D3ADE0AD
:10BA00001968914200D397E01800C369521A002BBD
:10BA1000F6D12260E361C461002DD6D15B46484671
:10BA2000984200D1BCE003995A008946D218049983
:10BA30000133D200DBB24A44994200D19BE0012499
:10BA4000117805940129EBD15468217C05910029D6
:10BA5000E6D19B46936881466360D168A160106916
:10BA6000E0605269A261079A002A00D1F5E0059BC7
:10BA700005926360424600239A1A1202120A524546
:10BA8000ADD94246D31A1B021B0A8B425AD2CA1A9C
:10BA90002260A6E75B68002F00D148E73900BB426F
:10BAA0002AD09146019A94461A0002E09A4207D0A1
:10BAB0001900CB69002BF9D163464A46019336E75A
:10BAC000634602920193029B4A4699468B4214D0E8
:10BAD0004B461B6802934B46DB699946CB61002BB2
:10BAE00000D124E71B6849469C46029B2F00634413
:10BAF0000B601CE7002228E7B946FF69002F09D038
:10BB000001233D000193E3E7002300260693F3E6BB
:10BB10000023E5E60125214B9D6001230193089355
:10BB2000002309930133002505930793D0E76A4664
:10BB3000184B127F1A7020E7891A19602260E3619E
:10BB4000C46169E7634623606360A36001232374D3
:10BB50006346E361002E09D00022316801238A1A6E
:10BB600032600194E661029326002CE701230194E0
:10BB70002600029327E7002361E7C04698210020B2
:10BB800094210020952100208C210020802100207C
:10BB90009C21002088210020FEFF7F000010014032
:10BBA000059B002B00D0D9E0029B002B02D06D4BEF
:10BBB000019A1A60BE4253D0002E00D197E06A4A23
:10BBC0006A496B4C88584246821A12022578120A3A
:10BBD00033680332002D21D18025D1266D02B600B5
:10BBE0008D51403E8D51C0278026624DB6027F00A8
:10BBF000EE512E6001250D605F49604F0E682F21C8
:10BC0000C046C046C046C046C046C046C046C04604
:10BC1000BE4200D0C0460139F2D12570934200D215
:10BC20001300A824434451491B021B0AE4004E4D53
:10BC30000B514A591B1A121A1202120A1B02033222
:10BC40001B0A9A4239D800234D4A13700BB03CBCF2
:10BC500090469946A246AB46F0BD01220592B8E651
:10BC6000069B002BEFD0A7E73E4B00241B68002566
:10BC70000021002013E03A68B24218D8F968B61AD9
:10BC8000A4183860FB69002907D05246FD613D00C9
:10BC900012191202120A7A60B9601F000699002F69
:10BCA000E9D1002900D17EE62E4A13607BE6002907
:10BCB00000D050E0961B3E6075E64B590B512E4B61
:10BCC0002E491A682F23C046C046C046C046C0460B
:10BCD000C046C046C0468A4200D0C046013BF2D1B1
:10BCE00080218023234A89025B00D150ABE7802169
:10BCF0008023204A8902D1508023D22101241B4A6B
:10BD00005B0289005350403953501B4B54601968F3
:10BD10002F231A481D00C046C046C046C046C04634
:10BD2000C046C046C046814200D0C046013DF2D167
:10BD30009460144A1660C046C046C046C046C0461D
:10BD4000C046C046C046814200D0C046013BF2D149
:10BD5000074B1E7077E703490B60ABE70A4B18707F
:10BD600022E7C0469C21002004050000001001408D
:10BD70008921002000E100E0482000200024F40098
:10BD8000882100209821002080210020F0B557460E
:10BD9000DE464E4645460324E0B583B007000193D6
:10BDA00014400720002C06D003B03CBC90469946B6
:10BDB000A246AB46F0BD002AF6D08026314DB60231
:10BDC00079302E50802040028046D22043462E4EAD
:10BDD00080003350403833500120706081462B483A
:10BDE000006884462A4880462F208346C046C046C5
:10BDF000C046C046C046C046C046C046C44500D046
:10BE0000C0460138F2D14846B0605846C046C046E8
:10BE1000C046C046C046C046C046C046C44500D025
:10BE2000C0460138F2D11B48019B04701A480360D8
:10BE30001A4BFF201C7099705C705A60184B80225E
:10BE40001C60184BC5211C70174B52031C70C0237B
:10BE50005B00EA5089006B5883433F3803436B50C3
:10BE6000A123DB002A600439F7506B580F4A0020E9
:10BE70001A40C0231B0213436B500D4BF2580D4B5D
:10BE80001A6091E700E100E0001001404820002026
:10BE90000024F400892100207C2100208021002042
:10BEA0009C2100209421002095210020FF00FFFF0D
:10BEB000040500009821002010B50B4B5B68002B97
:10BEC0000BD0002A07D0002805D0036808201C7C6E
:10BED000002C04D010BD0720FCE70820FAE75974B5
:10BEE0005A610020F6E7C04680210020F0B5C64622
:10BEF00000B52A4C82B0636805000E001700002BC5
:10BF000008D0002806D00720042905D802B004BCB8
:10BF10009046F0BD0820F9E76B69002BFAD06B7CE6
:10BF2000012B30D0002398466A460023D01DD371E0
:10BF3000FFF7DEFB6178A3784A1CD2B2934224D08B
:10BF40002378934223D04B005B186168DB008C465A
:10BF50006344002B1BD001211148197011495D6009
:10BF60004158DE60996041465F6119616B46D8793E
:10BF70006270FFF7DDFB802180230B4A49035B00E1
:10BF8000D1500020C2E78846CEE70022D8E76B46B2
:10BF9000D879FFF7CDFB0420B8E7C0468021002008
:10BFA000001001400405000000E100E070B51E4CE7
:10BFB0000500636882B00820002B2BD0002D29D00B
:10BFC0006B69002B26D06A460023D61D2B743000E7
:10BFD0003370FFF78DFB6178A2784B1CDBB29A427D
:10BFE0001AD022789A4219D04A0052186168D200B9
:10BFF0008C466244002A11D00221117055603078BD
:10C000006370FFF795FB802180230020074A4903D6
:10C010005B00D15002B070BD0023E2E73078FFF73B
:10C0200087FB0420F6E7C0468021002000E100E005
:10C0300052DF704710DF704760DF704761DF704785
:10C0400010B5FFF789F910BDF0B557464546DE46F5
:10C050004E46E0B52E4B2F4F1D689A466B425D4110
:10C060002D4B83B099462D4BEDB298462C4B9B46F9
:10C070003C78E4B2002C3BD101A8FFF7D9FF05289A
:10C080003DD0002825D0FFF723FB002D2CD13D7893
:10C09000EDB2002D08D02BE0FFF71AFB002CE7D003
:10C0A0003B780124002B23D14B466A461B8801A90B
:10C0B000938043461E683000FFF7C0FF052815D067
:10C0C0000028E9D1534630001B689847002CE7D17F
:10C0D000CEE7019800F00CF95B461B68002B12D0EC
:10C0E00001989847002DD2D00125C1E7002CFBD044
:10C0F00003B03CBC90469946A246AB46F0BD002D2D
:10C10000F6D10124C3E7002DC1D00125B0E7C04618
:10C11000A4210020AD210020A0210020B421002076
:10C12000B0210020014B1878C0B27047AC2100202C
:10C1300070B504000720002901D08D0700D070BD24
:10C1400001261C481C4D01601C490A801C4A1360D2
:10C150002B681E4209D080231A49EE502000FFF7B9
:10C1600069FF002807D02E60E9E716492000FFF795
:10C1700061FF0028E3D10124134B1C7000F0CAF8C2
:10C18000C5230D4A9B00D3589B0D1C4208D00F4B72
:10C190005968002906D18023DB0313600020CEE715
:10C1A0000B48CCE780221968D2030A431A600020AA
:10C1B000C5E7C046B421002000E100E0A021002036
:10C1C000A821002041C00100AC210020E82400206B
:10C1D00002200000002803D0024B186000207047A6
:10C1E0000E20FCE7A4210020002803D0024B186099
:10C1F000002070470E20FCE7B021002010B5094B4D
:10C200001B68002B06D09847002800D110BDFFF70F
:10C210005FFAFBE7044B1B78002BF7D0FFF714FF06
:10C22000F4E7C046A8210020AC21002070B514001E
:10C2300005000E00142200212000FEF7E7FF002376
:10C2400001222361237B228093432373267265722C
:10C25000002D01D00123A372002070BD00B5054B55
:10C2600083B00193019B69460093FFF7E5FE019BB4
:10C2700003B000BDE81F002010B51A4B1A68002A51
:10C2800014D0002280211A60C2220123164C920091
:10C29000C9058B506370A368002B07D01A68002073
:10C2A0005B68A2609847A368002BF7D10F4B1A6810
:10C2B000002A15D000221A60C223802202219B008E
:10C2C000D205D1500123084CA3702369002B07D05D
:10C2D0001A6801205B68226198472369002BF7D117
:10C2E00010BDC04600010040B821002004010040FC
:10C2F00010B500280BD1064CA368002B07D01A6894
:10C3000000205B68A2609847A368002BF7D110BD9E
:10C31000B821002030B583B06B46DD1D0023280016
:10C320002B70FFF7E5F9144C2378002B09D0E36854
:10C3300028780133E3600123A370FFF7F9F903B014
:10C3400030BD6360A3602361E3600C4B1B68DB07B7
:10C350000CD5FFF7E7FE002805D1A3238022012199
:10C36000DB00D205D15001232370E0E70321002038
:10C37000FFF7F4F9EDE7C046B821002000E100E046
:10C38000F8B54E46DE4657464546E0B5224B19788D
:10C39000994600292AD0214B00249846204B214F52
:10C3A00001269A4603E00134E4B28C421ED2434691
:10C3B0001B6832009C46E500654428783B68824053
:10C3C0001342F0D093433B6000F00EFA33002A781A
:10C3D0005146934009680B40010091408B420BD0BD
:10C3E0004B4601341978E4B28C42E0D33CBC904611
:10C3F0009946A246AB46F8BD6B689B46002BEFD032
:10C40000697801394B424B41191A4D424D41100098
:10C41000E9B2D847E4E7C046CC210020FC21002047
:10C42000F4210020F8210020F8B5124D0700280063
:10C43000FFF7BCFD002807D10124BC400E4E336835
:10C44000234202D0A3433360F8BD380000F0CCF99A
:10C450000A4A136800280BD0234313603368002274
:10C460001C43074B280019683460FFF73FFDEBE7DA
:10C47000A343F2E7D4210020F8210020F42100207A
:10C48000D0210020F0B54746CE4680B50D0007000C
:10C4900083B014000720042A04D803B00CBC9046D3
:10C4A0009946F0BD00F098F800282DD0194B1A4A93
:10C4B0001F601A4B1D701A4B1C6000231360194A31
:10C4C0006C1E1360E4B2002D18D0174B002699465D
:10C4D0000323984601AD4246E300FB182A70AE7074
:10C4E000EE709A7818786A7029004A4600F07EF853
:10C4F0000028D2D1013CE4B2FF2CECD10B4A002140
:10C500000B48FFF7D9FCC8E700F02CF80028CDD085
:10C51000C3E7C046FC210020F4210020CC210020EC
:10C52000D0210020F821002029C4010081C301008E
:10C5300014F4010070B5094D2B78002B0BD00024AA
:10C54000074E3268E300985C012100F0F9F82B787F
:10C550000134A342F5D8002070BDC046CC21002094
:10C56000FC21002070B54425184C0820665D002E83
:10C5700000D070BD01234022FF215B42A354013251
:10C58000A1540132A354236201326362A362E362C5
:10C5900023636363A363E363FC390238A35423601A
:10C5A0006360A360E36023616361A361E361FFF7FC
:10C5B000D5F8074B80211E60C123064A9B0009065F
:10C5C000D150012300206355D3E7C046002200204C
:10C5D0007C610040006000404423034AD05C431E5D
:10C5E0009841C0B27047C04600220020F0B5C64650
:10C5F00000B5504C0825231820331E787F2E03D811
:10C60000280004BC9046F0BDCD78AC46002D33D058
:10C610000425A84625680126013500D185E0B5002E
:10C62000635901332FD0731C9D00675901372BD0FC
:10C63000B31C43451ED29D006759013724D0F31C1B
:10C64000434517D29D00675901371DD0331D43451F
:10C6500010D29D006759013716D0731D434509D28A
:10C660009D00675901370FD00636464502D2E3696F
:10C6700001333ED00425C3E72569013530D00823B6
:10C6800005269846CBE733006251624627185EB212
:10C6900020373E70002A28D08B78002B14D103005D
:10C6A000A0254A78C133FF3392009B00ED055A5113
:10C6B000CB78002B20D1A4193C340B7822789B0135
:10C6C0001343237000259BE7A022D2059446E02562
:10C6D000022783006344ED005A59BA435A51E7E7F1
:10C6E000042504261D7004232261E3183C331870CE
:10C6F000D2E707231C25C7E70F4AB6009446A222BB
:10C700006644D2000B780D4CB15800022140F82449
:10C7100064012040C024B1501B04A402B15823403E
:10C7200018430843B05000256AE7002622601E70B7
:10C73000B2E7C0460022002000600040FFE0FCFF9E
:10C740000023F0B5254C22182032D356032B18DDD8
:10C75000E3183C331B789B09032B33D0012B39D0D2
:10C76000C025AD02A023DB059C46E0238000604489
:10C77000DB00C1581A4C2140C150C2582A43C25054
:10C78000F0BDD8B20328FBD8164DA227AC4601262F
:10C7900098006044FF00C5593543C55118006546EF
:10C7A00000274030800080B247510029E8D012783D
:10C7B00052B292001259002AE2D09E40C1239B003F
:10C7C000EE50DDE7A223A022DB00D205D358C34000
:10C7D000DB07C5D48025AD02C4E7C0460022002097
:10C7E000FFFFFCFF00600040A223A022DB00D20577
:10C7F000D358C340012018407047C046F0B5DE460C
:10C8000057464E4645460021E0B5C54A87B00391DC
:10C8100013680024012B00D1B4E1C24B1A68012A2D
:10C8200000D1A3E1C04B1A68012A00D192E1BF4BAD
:10C830001A68012A00D181E1BD4B1A68012A00D192
:10C8400061E123071CD0BB4BA22798460323012696
:10C8500000259946FF0026420ED0B74AAB009A1831
:10C86000D059D1594246D358002B05D04A46090C1D
:10C87000C0041140C00E984701357600042DEAD15E
:10C88000002C06DB07B03CBC90469946A246AB465E
:10C89000F0BD00230493013B0593C1339A46B93B95
:10C8A0009B464023A34AD1564B1C2DD0C9B25346B8
:10C8B00008005A46984301230A409340C60805AA37
:10C8C000925D134220D09B4A9A4C12182032127863
:10C8D000890952B29200A258002A00D1F1E003293E
:10C8E00000D1F1E0A025ED05AC46E02587006744C6
:10C8F000ED007D5903ACA65DAD03AD0F334200D012
:10C90000B9E0032D00D187E102230093013B032608
:10C91000994600254123874AD1564B1C2FD0C9B2D6
:10C92000534608005A46984301230A409340C708DB
:10C9300005AAD25D134222D07E4A7E4C12182032C4
:10C940001278890952B29200A2580192002A00D1AD
:10C95000C8E0032900D1C8E0A024E405A046820075
:10C960009044E0224446D200A25803ACE75D920313
:10C97000920F3B4200D08FE0032A00D137E14223DF
:10C980006C4AD1564B1C2DD0C9B2534608005A46AA
:10C99000984301230A409340C70805AAD25D134279
:10C9A00020D0644A634C121820321278890952B29E
:10C9B0009200A658002E00D18CE0032900D18BE014
:10C9C000A024E405A44682009444E0226446D200F8
:10C9D000A25803ACE75D9203920F3B4268D1032A51
:10C9E00000D1EFE04323534AD1564B1C2AD0C9B2A1
:10C9F000534608005E46984301230E40B340C208E8
:10CA000005AEB65C33421DD04A4C89092618203643
:10CA1000367876B2B600A659002E6CD003296CD0B9
:10CA2000A024E405A4468700BC44E0276446FF0038
:10CA3000E75903ACA25CBF03BF0F134212D1032F0F
:10CA400000D1A8E0002D00D11CE7A223A022DB002A
:10CA5000D205D358039A9A4200D113E70393049B5B
:10CA600005931EE7022FEDD1032900D1EEE0002E41
:10CA7000E8D0B047E6E7022D00D045E7032900D112
:10CA8000E7E002230093013B032699460025002A94
:10CA900000D13FE790473DE7022A00D06FE7032926
:10CAA00000D1DAE0019B002B00D168E7984766E7E8
:10CAB000022A97D1032900D1C5E0002E92D0B047B9
:10CAC00090E7032900D01FE704ACA5192F781F4376
:10CAD0002F7007E7032985D104AAD21914781C43C3
:10CAE00014706DE7032900D049E704AAD21914781D
:10CAF0001C43147030E70329A4D104ACA7183C7878
:10CB00001C433C708CE700221A6080231B061C43E8
:10CB1000A022A223D205DB00D358039391E6C0469E
:10CB20000061004004610040086100400C61004069
:10CB30007C6100400022002000600040C122484982
:10CB40009200895808220A4200D175E60021144358
:10CB5000196071E6C12242499200895804220A42B2
:10CB600000D164E600211443196060E6C1223C490B
:10CB70009200895802220A4200D153E60021144350
:10CB800019604FE6C120364C800024581C4000D16B
:10CB900043E6116041E6032900D068E78027BF0221
:10CBA000E0236246DB00D5582E4A644615406246B3
:10CBB000D550D2584D463A43E250002E00D144E7BA
:10CBC000B0473FE7032900D077E78027BF02E02383
:10CBD0006246DB00D558234A644615406246D5506C
:10CBE000D2584D463A43E250009B994665E70329E7
:10CBF00000D057E78027BF02E02342464446DB00CF
:10CC0000D258184D2A40E250E2584D463A43E2507D
:10CC1000009B0096994645E7032900D031E7802321
:10CC20009B029C46E0236446DB00FE580D4D2E40DF
:10CC3000FE50FD5804262543FD5003230093013B7D
:10CC40009946012523E7C027BF02C0E7C027BF02DE
:10CC5000A6E7C0239B029C46E4E7C027BF02CBE7C0
:10CC600000600040FFFFFCFF012300781840704780
:10CC7000F0B55746DE464E464546E0B5038889B0D6
:10CC80000700112B00D16CE01A2B50D0102B06D0CE
:10CC900009B03CBC90469946A246AB46F0BD374E23
:10CCA00003A8737D327D03AC9A43331D1900984667
:10CCB00000F0E8F9039B00259946002B10D01423BF
:10CCC0009B4600239A46B3445246A3885946009295
:10CCD00040461D22013500F0BBF802344D45F3D12A
:10CCE000307DBC88C043C0B200F04CF8244B984261
:10CCF00040D031004000351D3018848022002800CB
:10CD00001531012300F06AF83100220028001431A7
:10CD1000012300F063F8BB7D3100023B5A425341CE
:10CD20001631DBB2BA88280000F058F8B0E71F23AC
:10CD3000027A124E93429B4131005B428288DBB201
:10CD4000301D173100F04AF82F233A7A3100934210
:10CD50009B415B42DBB2BA881831301D00F03EF8CF
:10CD600096E782880548002301000430153100F061
:10CD700035F88DE70420FEF7ABFC89E74822002058
:10CD8000FFFF00000123034215D14210134214D1CA
:10CD90008210134213D1C210134212D10211134256
:10CDA00011D14211134210D1821113420FD1C0117F
:10CDB0000FD1094870470020FCE70120FAE7022064
:10CDC000F8E70320F6E70420F4E70520F2E7062061
:10CDD000F0E70720EEE7C046FFFF000010B500288F
:10CDE00019D0002917D00488944222D04488944254
:10CDF00021D08488944220D0C48894421FD00489D2
:10CE000094421ED0448994421DD0848994421CD0FF
:10CE1000C089904200D010BD072001228240002B23
:10CE200003D00B7813430B70F5E70B7893430B702B
:10CE3000F1E70020F1E70120EFE70220EDE7032012
:10CE4000EBE70420E9E70520E7E70620E5E7C04631
:10CE5000F0B5DE4657464E464546E0B583B00CACCD
:10CE60002478002822D0002920D0002A1ED005884E
:10CE70009D4200D1E1E045889D4200D1EAE08588ED
:10CE80009D4200D1E8E0C5889D4200D1E6E00589D9
:10CE90009D4200D1E4E045899D4200D1E2E08589D0
:10CEA0009D4200D1E0E0C089984206D003B03CBC6E
:10CEB00090469946A246AB46F0BD07200123834029
:10CEC0004842DBB2002C5CD103342040904200D9B0
:10CED00010001400042A00D9B6E0D8430D78C0B27F
:10CEE00005400D70012C00D1C6E04D7805404D7015
:10CEF000022C00D1C4E08D7805408D70042C00D048
:10CF0000BCE0CD782840C8700420A242CED0151BCA
:10CF10002E1FB608AC46751CAB46AD00A846551E84
:10CF20002D1B022D18D91D021D43A9464E461F0474
:10CF3000374300261D063D43B2460027ED430C193A
:10CF4000E6592E40E6510126B146CA440437DA4577
:10CF5000F6D34044C445A9D0DB430C182578DBB296
:10CF60001D402570441CA242A0D90C19257802301E
:10CF70001D402570824299D9081802781340037029
:10CF800094E703242040904200D910001400042AA2
:10CF900055D8087818430870012C69D04878184390
:10CFA0004870022C62D0887818438870042C61D1B4
:10CFB000C8781843C8700420A24200D176E7151B38
:10CFC0002F1FBF080137AC46BD00A846551E2D1BBC
:10CFD000022D1DD91E021E43B146A3464C461D0418
:10CFE0001E06254335430024AA4600268B4401949F
:10CFF0005D465446AD592C435D46AC51019C043608
:10D0000001340194A742F3D84044C44500D14DE710
:10D010000D182C781C432C70441CA24200D845E704
:10D020000C19257802301D432570824200D83DE757
:10D03000081802781343037038E700203EE7002405
:10D040000028BCD00400A4E70024002800D15EE73B
:10D05000040042E7012031E702202FE703202DE7FB
:10D0600004202BE7052029E7062027E70220A3E775
:10D070000120A1E703209FE7012046E7032044E7C2
:10D08000022042E730B50023002935D0D40702D56D
:10D090000B8883800123940704D55C004D88041914
:10D0A000A5800133540704D55C008D880419A58040
:10D0B0000133140704D55C00CD880419A580013321
:10D0C000D40604D55C000D890419A58001339406AB
:10D0D00004D55C004D890419A5800133540604D59C
:10D0E0005C008D890419A5800133D21104D05A0047
:10D0F000C989821891800133036030BD30B51B4B64
:10D100001B4A5B88118883B099420FD852889A4293
:10D110000CD3184B5B69002B03D0012201A80270CD
:10D120009847154C0023237003B030BD124C237870
:10D13000002B08D00F4B5B69002BF3D0002201A815
:10D1400002709847EEE70D4B0A4D1B78002B0BD071
:10D15000A96800220A48FEF7C9FE0028E2D0AB69A0
:10D16000002BDFD09847DDE76968F2E7BC2200209A
:10D17000C4220020802200207C220020CC2200201B
:10D180009C22002010B50388112B33D021D9122BFB
:10D1900018D0502B1CD1204CC288E3899A4217D159
:10D1A000038A022B14D11230FFF75EFD00280DD147
:10D1B0001A48FEF7FBFE00280AD0A369002B07D00F
:10D1C000984705E0164B083006C806C3FFF796FFE0
:10D1D00010BD102BFCD18288124B18301A80104BD6
:10D1E00006C806C30022104B1A700B4BDB89002BBC
:10D1F000EED1EBE701220B4B52421A8000220A4B80
:10D2000006481A70FEF7D2FE0028E1D0024B9B6957
:10D21000002BDDD09847DBE7802200209C220020F5
:10D22000BC2200207E220020CC22002029DF704773
:10D2300028DF704770B50B4C0500626E0020042A91
:10D240000FD0236ED318032B00D9043B0132626642
:10D2500018225343E41800212000FDF7D7FF0120D6
:10D260002C6070BDD022002070B52F4C86B0636E4C
:10D27000002B10D0266E7500AB19DB00E3181A7A6C
:10D28000012A0AD0022A25D19889FFF7D1FF112857
:10D2900015D000281ED106B070BD9A8AD88A121AFD
:10D2A000FF2A14DC92B2AB19DB00E318D9681B69C2
:10D2B000800009181818FFF7B9FF1128E9D10221D9
:10D2C0001A4A13788B4304210B431370E3E780223F
:10D2D0005200E8E71022002102A8FDF797FFAB19E2
:10D2E000DB00E3181A7A012A15D0022A07D101229D
:10D2F00002A90A709A89DB894A81D31A0B81AD1978
:10D30000ED0063195B68092101930393635902A837
:10D310009B689847BFE7002202A90A701A699B8A96
:10D3200004928B81EBE7C046D0220020CD22002062
:10D33000F0B54746CE4680B5284E9946337883B03F
:10D340000500884617000124DB0711D5002817D0F7
:10D35000234B013498420BD3224B984208D2002A27
:10D360000CD04346002B09D03B4306249B0709D031
:10D37000200003B00CBC90469946F0BD0324F7E7AB
:10D380000224F5E72B68013C9845F1D34B466A68C7
:10D390009B0043449A42EBD34B46013C002BE7D021
:10D3A00001A8FFF747FF03340028E1D0019B0A9A48
:10D3B0001D605A600122019B00241A7242461A61C4
:10D3C0004A46DF609A82062332781A42D0D1043B63
:10D3D00013433370FFF748FFCAE7C046CD22002051
:10D3E0005C2000206C200020F0B54746CE4680B57A
:10D3F000254E9946337883B005000F0090460124EE
:10D40000DB070ED5002814D0204B0134984208D3F6
:10D410001F4B984205D2002909D0BB050624002BDA
:10D4200009D0200003B00CBC90469946F0BD0324FF
:10D43000F7E70224F5E72B68013C9F42F1D343460E
:10D440006A689B02FB189A42EBD34346013C002BCF
:10D45000E7D001A8FFF7EEFE03340028E1D04A46EA
:10D460004146019BBF0A1D605A60019A0223118246
:10D47000062113729781327800240A42D1D11343D6
:10D480003370FFF7F1FECCE7CD2200205C200020B6
:10D490006C200020F0B54F464646D646C0B5A84F92
:10D4A000A84C3B7884B0266E9A073DD5022800D15F
:10D4B000CDE0032800D189E073009B19DB00626E88
:10D4C000E318002A00D17BE0720090464246921990
:10D4D000D200A218117A01293DD0022969D0102268
:10D4E00000216846FDF792FE43469B19DB00E318D6
:10D4F0001A7AE946012A00D1BFE0022A07D169461B
:10D5000001220A709A89DB894A81D31A0B81330080
:10D5100049464344DB00E2185268E3584A609B687E
:10D520000921484698474BE004221A42C4D093434D
:10D53000626E3B70002A43D0022213433B7073009B
:10D54000984642469219D200A2189B19117ADB0024
:10D55000E3180129C1D1D08A43469B19DB00E318A7
:10D560009A8A121AFF2A00DD84E092B243469B1980
:10D57000DB00E3188500D968186949194019FFF7DD
:10D5800055FE11281AD102223B78934304221343FB
:10D590003B7015E0AB892A8A0133AB81EB890133FB
:10D5A0009BB2EB819A4200D18EE0636E002B07D0D4
:10D5B0002B009889FFF73CFE1128E4D000288ED17B
:10D5C00004B01CBC90469946A246F0BD5E4A137852
:10D5D0000133DBB21370032B00D86DE70025002167
:10D5E000157068461022FDF711FE730098469B19CE
:10D5F000DB00E3181A7AE946012A5ED0022A07D135
:10D60000694601220A709A89DB894A81D31A0B8103
:10D61000330049464344DB00E2185268E3584A604D
:10D6200008219B6848469847636E5A1E6266002A26
:10D6300069D102213B788B433B70236E0133236613
:10D64000042BBDD1002300262366230039E70023E5
:10D650009A4652463C4B1A70730098469B19DB0061
:10D66000E5182B7A012B11D0022B00D192E72B0069
:10D67000626E26E78022520078E7002269460A702F
:10D680006A4619699B8A0291938140E7AA8AE88ACF
:10D69000131AFF2B0FDD80235B00C01843469D1932
:10D6A000ED0080B26519E882824232D0636E002BB1
:10D6B00000D051E784E79BB2EFE76A4619699B8A7D
:10D6C000157002919381A3E7102200216846FDF7AF
:10D6D0009DFD2B7AE946012B2ED0022B08D1012388
:10D6E0004A4649461370AA89EB894A81D31A0B81AD
:10D6F000330049464344DB00E21852684A60E3586D
:10D7000000219B688EE7236E5E1C2666042E99D04E
:10D7100015E7102200216846FDF778FD2B7AE946CF
:10D72000012BDAD100236A4613706B462A699A608E
:10D730004A46AB8A9381DBE76B4652461A70F5E79F
:10D74000CD220020D02200203823002071DF704736
:10D7500072DF704779DF70477DDF704765DF7047A4
:10D76000F0B5DE4657464E464546E0B587B09B4687
:10D7700010AB914604CB07001B88029101931388DC
:10D78000904603930388002B00D16EE000239A4655
:10D7900004AB0024DD1C03E03B880134A3422EDDF2
:10D7A0007B68A1009C460422614405A801F016FE96
:10D7B0000022290005A8FFF7D1FF061E2BD12B78E8
:10D7C0004B45E9D15346002B2DD043461A884B4692
:10D7D0000199D3188B421DDC5A44290005A8FFF794
:10D7E000BDFF00283BD142462B78128801349B189C
:10D7F0004246138001239A463B88A342D0DC53461D
:10D80000002B32D043461B88039A013B9B1A9BB2E4
:10D81000FF2B26D90C26300007B03CBC9046994619
:10D82000A246AB46F0BD43464A461B8801999A186A
:10D8300002328A42EEDC4246013369469BB21380D3
:10D840005A46097A05A8D15443461A88290001325C
:10D8500092B21A805A44FFF781FF0028C3D0060015
:10D86000D9E711005A465354D5E70026D3E7C046FE
:10D87000F0B557464E464546DE460023E0B51788CC
:10D8800013802D331400C25C87B005000E00002306
:10D89000002A50D1AA78002A00D078E0E97800293F
:10D8A00034D16A68002A14D0D91CB94226D8022182
:10D8B0001278F1542388083101339BB22380F1544C
:10D8C000238852B201339BB22380F2542388013360
:10D8D00023802B89002B00D031E12B8A002B00D034
:10D8E00047E12B8B002B00D05DE12B6A002B00D190
:10D8F000B0E02288911DB94200D869E00C2007B041
:10D900003CBC90469946A246AB46F0BDDA1CBA42F2
:10D91000F4D80222F2542388013A01339BB22380C7
:10D92000F254238801339BB22380F15423880133BE
:10D930009BB22380B5E70C20082FE0D904A8FFF79D
:10D9400005FF0028DBD1082223880921F25423880F
:10D95000133201339BB22380F25402AB9C462088E1
:10D96000153A013080B220806144301801F036FD54
:10D97000238802AA0633127A9BB22380002A00D0A1
:10D980000122F254238801339BB2238082E70433BF
:10D990000C20BB42B3D804A8FFF7DCFE0028AED1B0
:10D9A00003222388F2542388163201339BB223804A
:10D9B000F254238802AA01339BB212892380F31800
:10D9C0001A70120A5A70238802339BB2238065E7CB
:10D9D00019888A46052900D8AFE0AD48504480B286
:10D9E0008046AC488446804500D8A6E058888146E9
:10D9F000052800D8A1E0A64869468046C8444046AC
:10DA0000C881C889604500D897E0A348824504D002
:10DA1000814502D0CA4500D98FE00521B154228842
:10DA20000D31013292B22280B1542288013292B279
:10DA300022801988B2181170090A517022880232A6
:10DA400092B222805988B2181170090A5170238845
:10DA5000023323806B6A9846002B2FD09988208848
:10DA60008A1C831C9B18BB4200D947E7FE2A00D9B9
:10DA700044E7FF2203313154238801339BB22380D2
:10DA8000F2544246238801339BB223801288F31854
:10DA90001A70120A5A7043462088023080B22080E1
:10DAA0009A88002A0AD09968002946D0301801F0D7
:10DAB00095FC4246238892889B1823802C23EB5C9C
:10DAC000002B00D08FE02B780020002B00D116E730
:10DAD0002A880720012A00D111E72288901CB84229
:10DAE00000D90BE7012B05D16B7802339B189F42BD
:10DAF00000D203E7023FBF1ABFB202AB301804A93D
:10DB00001F81FFF729FE002800D0F8E62B78022BB2
:10DB100000D1B5E0012B60D00822FE2F00D9EDE640
:10DB20002388791CF154238801339BB22380F2545B
:10DB300023880133FF182780E1E60720DFE608236A
:10DB40009846A844019700943300022202214046DF
:10DB5000FFF706FE002800D0D1E6019700943300BD
:10DB6000102206214046FFF7FBFD002800D1B4E655
:10DB7000C5E610239846A84401970094330002227A
:10DB800003214046FFF7ECFD002800D0B7E60197DF
:10DB900000943300102207214046FFF7E1FD0028E2
:10DBA00000D19EE6ABE618239846A844019700945E
:10DBB0003300022214214046FFF7D2FD002800D096
:10DBC0009DE6019700943300102215214046FFF78F
:10DBD000C7FD002800D188E691E66B789F429BD371
:10DBE0001F00082299E7AB6A9846002BA5D09B88B6
:10DBF0000233FE2B00D981E600229146163292466E
:10DC00001632934620885246013333542388013319
:10DC10009BB22380F2544246238801339BB2238077
:10DC20001288F3181A70120A5A704346208802307C
:10DC300080B220809A88002A0CD09968002900D1EF
:10DC40007BE7301801F0CAFB434620889B88C01848
:10DC500080B220804B460133DBB299465B46EB5CD9
:10DC60004B4500D82FE74B46AA6A5B0090464B44D1
:10DC70009B00984443469B880233FE2BC3D93DE664
:10DC800002AB1B899F4200D246E71F00092244E7EE
:10DC90007FF3FFFF7DF30000FFFF0000F0B5464675
:10DCA000D6464F461F23C0B596B002AA04000E0008
:10DCB000D38100282ED0C078430724D5002302AAA0
:10DCC00093812D33E35C002B00D06EE1A3780EAF7F
:10DCD000002B00D0A6E100230021032206AD02277D
:10DCE0006F54591C02339BB289B2013F6F54E85400
:10DCF00093B202AA93816268002A39D0D91C1F29E5
:10DD000029D90C2000E0072016B01CBC904699468B
:10DD1000A246F0BD002502AB9881002E16D0F37804
:10DD2000002BF0D102AA94460E2363441A000EA9D8
:10DD30003000FFF79DFD0028E6D102AB9B7B0EAAC9
:10DD400002A9097B2800FFF703FDDDE702ABDE81B6
:10DD500000220023F4E70020105602220A27EA548A
:10DD60005A1C02339BB292B2AF54E85402AB998171
:10DD70002389002B00D0BEE0238A002B00D0D8E0FE
:10DD8000238B002B00D0F2E0226A002A3DD002ABA8
:10DD90009B89991D1F29B4D8108882460528B2D9BD
:10DDA000D34F5744BFB2B846D24FBC46B845AAD9A4
:10DDB0005788B946052FA6D9CD4F6846B846C844FE
:10DDC0004746C781C78967459DD9CB4FBA4504D01F
:10DDD000B94502D0CA4500D995E705201227E85475
:10DDE000581C80B22F54981C80B202AFB88117889B
:10DDF000281807703F0A4770043352889BB2EB180B
:10DE00001A70120A5A7002AB9981676A002F2FD0DC
:10DE1000BB88991C984602AB9B899A1C50181F28F6
:10DE200000D96EE7FE2900D96BE740460330E8547D
:10DE3000FF20591C89B2685492B202A98A8139889C
:10DE4000AA180433117098B2090A02AB5170988174
:10DE5000BA88002A0CD0B968002900D153E72818E5
:10DE600001F0BCFA02ABBA889B899B1802AA938185
:10DE70002C23E15C002900D0EFE02378002B00D1B7
:10DE80004BE722880720012A00D13DE702AA9289A8
:10DE9000901C1F2800D934E7012B04D163781B188C
:10DEA0001F2B00D92DE71D230EAF9A1A93B2281805
:10DEB000390098463B80FFF74FFC002800D023E74D
:10DEC0002378022B00D119E1012B00D11DE143463B
:10DED00008213B804346FE2B00D912E7424602ABA5
:10DEE0009B890132EA545A1C92B20233A95443442A
:10DEF00002AA938111E71F23270098460837019350
:10DF000005AB009302222B0002213800FFF728FC0A
:10DF1000002800D0F8E64346019305AB0093102299
:10DF20002B0006213800FFF71BFC002800D123E757
:10DF3000EAE61F23270098461037019305AB0093AC
:10DF400002222B0003213800FFF70AFC002800D032
:10DF5000DAE64346019305AB009310222B0007211C
:10DF60003800FFF7FDFB002800D109E7CCE61F23AE
:10DF7000270098461837019305AB009302222B0027
:10DF800014213800FFF7ECFB002800D0BCE6434624
:10DF9000019305AB009310222B0015213800FFF7E9
:10DFA000DFFB002800D1EFE6AEE60EAF3800FFF74A
:10DFB000CDFB002800D0A7E6082202AB9B8906AD66
:10DFC000EA545A1C023398B21B2102AB9C4692B20F
:10DFD000A9541631988106226144281801F0FEF9EF
:10DFE00002AB9B8902A99A1D92B28A8139780029D5
:10DFF00000D001210733A9549BB202AA9381A278D1
:10E00000002A0AD1E078002800D174E6DA1C190051
:10E010001F2A00D863E60C2076E604330C201F2B61
:10E0200000D971E63800FFF795FB002800D06BE6B9
:10E030000322192102AB9B8906ADEA545A1C92B205
:10E04000A9549A1C398892B2AA1811700433090A8B
:10E0500051709BB202AA9381D4E7A76A002F00D126
:10E0600051E6BB880233FE2B00D94AE602AA90890A
:10E070000022904616329146163292464A460133A5
:10E080002B54431C9BB2EA54831C9BB202AA93817B
:10E090003A88EB181A700430120A5A7080B202AB38
:10E0A0009881BA88002A0FD0B968002900D12AE6E1
:10E0B000281801F093F902AB9889BB88C01880B288
:10E0C00002AB98815346E15C43460133DBB298468C
:10E0D0008B4200D3D1E643465F00A36A47449C4687
:10E0E000BF006744BB880233FE2BC7D90C200BE668
:10E0F0007FF3FFFF7DF30000FFFF00003B889845A2
:10E1000000D2E4E698460921E4E66378984500D217
:10E11000DDE63B8098460821DCE6C04610B50220CB
:10E1200000F0DEFA10BDC046F8B505000C0000F0A6
:10E13000F9FA00280FD1012C0ED0002C15D0022C9A
:10E1400009D1164B5C78002C05D0154B1B68002BB1
:10E1500001D020009847F8BD104E73783478002B1A
:10E160000DD1B2780F4B1A70EDE70F48FDF71EFF87
:10E170000A4B9C780B4B1B78A342ECD1E3E70B4B8B
:10E180000B4F1B683A009900C91849000648FDF773
:10E19000ADFE0028E5D13D70E3E7C04680230020B6
:10E1A000AC230020B4230020602300205C23002047
:10E1B0003923002070B5724B1B68DB0700D470BD9B
:10E1C000704E714D33782C78002B05D1172CF6D872
:10E1D0006E4AA300D3589F460023337000F06EFAB6
:10E1E000F4E701230120337000F07AFA684B002233
:10E1F0001B6868489900C918FDF778FEDFE701231E
:10E200000120337000F06CFA614B002219686148FC
:10E21000FDF76CFED3E7604D2800FDF7C7FE112324
:10E220001C1B00D18EE0002800D08BE0012C0BD00D
:10E23000C8306421604300F05BFF554B0022196831
:10E2400041432800FDF752FE022000F025FAB6E710
:10E2500000F034FA12232B70B1E700F02FFA0020FF
:10E2600000F01AFA13232B70A9E700F031FA2C7092
:10E27000A5E700F023FA00232B70A0E7002000F0B0
:10E2800001FA002862D0002000F00EFA2823022CA8
:10E2900055D02C7022E000F01BFA0C232B708EE777
:10E2A00000F00CFA002000F0F7F9012000F0F4F97A
:10E2B00015232B7083E700F001FA012000F0ECF940
:10E2C00014232B707BE7002000F0DCF9002850D0ED
:10E2D000002000F0E9F9082303222A702C4A2D4877
:10E2E000116800225943FDF701FE68E7002000F0A5
:10E2F000C9F9002833D0002000F0D6F928230422E1
:10E30000EBE7002000F0C8F907232B7057E7002047
:10E3100000F0B8F9002828D0002000F0C5F9052346
:10E320002B701B4B002219681A484900FDF7DEFDCF
:10E3300045E7002000F0D4F906232B7064E7163B74
:10E340002C70CBE7022000F0AFF938E7002000F096
:10E35000A3F90423022C9CD1023B2C70BEE70020C1
:10E3600000F09AF904230422B7E7002000F094F9A2
:10E37000D5E7002000F090F902230322ADE7C04664
:10E380008423002088230020B023002018F40100FB
:10E390005C2300208C2300203C23002010B5007853
:10E3A00000F0C0F9002808D1044B5878002804D0A8
:10E3B000034B1B68002B00D0984710BD8023002022
:10E3C000AC23002070B57F4B05001B680024DB07E1
:10E3D00001D4200070BD7C4E3378002B06D1172D60
:10E3E00000D9EDE0794AAB00D3589F46347000F075
:10E3F00065F9F4E701230120337000F071F9744BE3
:10E4000000221B6873489900C918FDF76FFD0400CE
:10E41000DFE701230120337000F062F96C4B00222A
:10E4200019686C48FDF762FD0400D2E700F046F978
:10E43000012000F031F91422674B00241A70C8E75C
:10E44000002000F029F90722634B00241A70C0E76E
:10E4500000F034F9002000F01FF9012000F01CF951
:10E4600015225D4B00241A70B3E7002000F00AF972
:10E47000002800D199E0002000F016F908230321BC
:10E48000554A117076E0002000F0FCF8002800D119
:10E4900085E0002000F008F928230421F0E700209F
:10E4A00000F0F0F8002800D184E0002000F0FCF833
:10E4B0000522494B47481A70454B0022196849000C
:10E4C000FDF714FD040084E7002000F009F906229E
:10E4D000414B1A70A2E700F0FBF80C223E4B0024DF
:10E4E0001A7076E73D4E3000FDF760FD0400112004
:10E4F000451B48D0002C46D1012D0CD0B7306421EB
:10E50000684300F0F5FD324B0022196841433000AA
:10E51000FDF7ECFC0400022000F0BEF859E700F023
:10E52000CDF812222C4B00241A7052E700F0C6F8E6
:10E53000002000F0B1F81322274B00241A7048E79E
:10E5400000F0C6F8244B00241D7042E700F0B6F836
:10E550000022214B00241A703BE7002000F092F8C3
:10E56000002814D0002000F09FF82823022D25D089
:10E57000194A1570164A1748116800225943FDF7C9
:10E58000B5FC040025E7022000F08EF821E700200A
:10E5900000F082F80423022DEAD1023BE8E70020D4
:10E5A00000F07AF8042304216AE7002000F074F8F0
:10E5B000022364E7002000F06FF879E7163BD7E705
:10E5C000002406E7842300208823002078F401003B
:10E5D0005C2300208C230020B02300203C2300205B
:10E5E0001D4B70B519601D4B050018601C4B1A605F
:10E5F000830710D4C3071BD41A4A00211A48FDF719
:10E600005BFC041E05D1194A01211948FDF754FC91
:10E610000400200070BD0E22164B17481A704A08DD
:10E620000121FDF72FFF041E08D0EB07F1D500E014
:10E63000002400F069F8002CEBD1DDE7FDF77AFF4C
:10E64000041EF2D10D4A00210D48FDF735FC0400EF
:10E65000EB07EED4EFE7C0465C23002084230020C4
:10E66000AC230020B5E10100E8F401001DE1010048
:10E67000E0F4010080230020D8F401009DE30100B4
:10E68000E4F40100A022034BD205D0584003C00F90
:10E690007047C046040500008021A123A022C902C2
:10E6A000DB00D205D15070478021A022024BC90265
:10E6B000D205D1507047C0460C0500008021A02231
:10E6C000024BC902D205D1507047C0460C0500006C
:10E6D0008021A123A022C902DB00D205D1507047BE
:10E6E0008021A022C90210B50C00A120044BD20544
:10E6F000D358C0009C430B4002491450535010BDE6
:10E70000040500000C050000A023E9220321DB051D
:10E71000D20099508021024AC90299507047C046E0
:10E720000C0500001038431E984140427047C04617
:10E73000F0B52B4C83B063686688002B49D05A88AB
:10E74000284F0332920036019A18BB19596880236A
:10E75000DB00C818824224D21368013321D0224D35
:10E760009388AB4214D01388002B11D01F486260ED
:10E770008388016803209B00C918538820700020FB
:10E78000033300909BB21A48FEF7D2FD03B0F0BDF0
:10E79000538803339B00D218824202D2136801339C
:10E7A000DED1BE19B389002B0BD0052302222370C2
:10E7B0000E4B0F489A801968013A0023FEF714FEA9
:10E7C000E4E7002301220A48FEF70EFE042323702B
:10E7D000DCE7044F3601BB1959680A000832B6E776
:10E7E00030240020B8240020FFFF0000D82400209F
:10E7F0005C200020F0B5C64600B543688C46002B6F
:10E8000003D0314A11688B4235D20023624601277A
:10E810002E492F4D138080234E68DB00F41800230F
:10E820000DE01A68013212D09A88AA4209D01A88DB
:10E83000002A06D09A6890460268904513D0002BB3
:10E840000ED05A88033292009B18A342E9D3634644
:10E850001F800137BFB21031032FDCD1002007E049
:10E8600033000833F1E743601A4B1B890381012011
:10E8700004BC9046F0BD52689342C6D89A07C4D1F2
:10E88000144A018912899142BFD1026899688A426B
:10E89000BBD10E494A68934207D98020C000804608
:10E8A0004244934201D200230AE04A690020934285
:10E8B000DED98021C900884642449342D8D2012340
:10E8C000624601201380D3E75C200020B82400209A
:10E8D000FFFF000030240020F0B54646D6464F46E4
:10E8E000C0B58C469988904601294BD8284C0A011E
:10E8F0000432A2180024A146264F141F2478002CAD
:10E900003AD11C68002C3FD0658816680335AD00ED
:10E9100064198025ED00AA465644B4422AD22568DF
:10E92000013527D0A588BD421ED02588002D1BD0DB
:10E930001C60002803D0A6880588AE42E2D1654657
:10E94000002D03D026882D88AE42DBD14246002020
:10E95000A16811601B6853600F4B1B8913811CBC9D
:10E9600090469946A246F0BD65880335AD0064190E
:10E97000B442D4D34C461C60013189B29980103224
:10E980000229BAD10A20EAE7166834000834C0E741
:10E99000B8240020FFFF000030240020F0B55746C7
:10E9A00045464E46DE46E0B5CE4C8BB0256F8146DF
:10E9B000EB005F1BBF009846E3199A46E35D062B08
:10E9C00000D97EE0C8499A008A589746002800D0AE
:10E9D000F2E0C64E327B002A00D191E232783073E9
:10E9E000072A6ED8C24992008A589746002800D05C
:10E9F000E2E04246521B92009346A3445A461279E3
:10EA0000012A00D1B8E2002A00D19AE2022A58D1A4
:10EA1000002205AE72605DE04246B648521B834656
:10EA20009200A218518A09018B444946002900D05E
:10EA3000D5E058465946406809898146127C8900CC
:10EA40008944062A00D946E3AB4992008A58974682
:10EA5000002800D0D5E052461679012E00D19FE261
:10EA6000002E00D1ACE2022E00D1D2E0032E20D144
:10EA7000A24E00900223A24A3168A248FEF758FC39
:10EA80009A4B9C4A5B8837681B019446D2185168A0
:10EA90005760B7883160178102226146B2804A46CA
:10EAA0005A5453461A7100284BD043465B1B9B00B7
:10EAB000E35C012094490E270A7805AE82430A7070
:10EAC00001E00F2705AE524612787760023A012A1C
:10EAD00000D87AE0062B0FD88C4A9B00D3589F466B
:10EAE0000323337043465D1BAD006519EB88B3818A
:10EAF0002B89F381EB68B360854D2F0020372B689D
:10EB0000002B01D0300098470435BD42F7D1236F68
:10EB10001C22D800C01A800020180021FCF776FBC8
:10EB2000636F002B08D0226F013B511C03220A4067
:10EB300022676367002B0BD10421734A13788B4340
:10EB400013700BB03CBC90469946A246AB46F0BD54
:10EB50000020FFF723FFF4E70223337043465D1BD9
:10EB6000AD0065192B89B381AB88F381EB68B36085
:10EB70002B7C063B594259413174BDE70123337068
:10EB800043465D1BAD0065192B89B381AB88F381CA
:10EB9000EB68B360B0E700233370ADE70523337053
:10EBA000AAE70423337043465D1BAD006519EB886B
:10EBB000B3810023F3819FE752460127127805AE07
:10EBC000023A7760012A00D984E75246917D514A82
:10EBD000106C40181064506C411A51647AE7584622
:10EBE000D1880089CA1C80185A46108103225242DB
:10EBF000511A5A46528901275218594605AE4A8180
:10EC000061E70120404901270A7805AE82430A7076
:10EC100059E73A4F0023012239683A48FEF7E4FBEE
:10EC200053464A46BE801A713DE77288314B120145
:10EC30009B189A89002A00D1F6E10523022233703D
:10EC40002E4B30489A801968013A0023FEF7CCFB1E
:10EC50000700002F00D174E71C236B4305AEE35C73
:10EC600031E70320254B726899881B688900591881
:10EC7000538830700020033300909BB22148FEF788
:10EC800057FB0700E5E700233A1DA2180093494609
:10EC900001331C48FEF74CFB434602215B1B9B00E3
:10ECA000E2181174002800D14BE7E35C0E2734E032
:10ECB0003A00002349460832A21804310093114853
:10ECC0000133FEF735FB43465A1B9200A35CA218A2
:10ECD000D91E4E1EB14105311174002800D130E714
:10ECE0000E271AE040240020ECF40100302400201C
:10ECF00008F50100B824002028F50100D8240020E0
:10ED0000A4F501005C2000202C24002044F5010023
:10ED1000C4230020E4230020D64F42465846521B0D
:10ED20009200A218D1880089CA1C80185A46108106
:10ED300003225242511A5A465289521859464A8160
:10ED4000CC4A974200D163E6BCE6CB4BCB4A59682C
:10ED50000023CB4800930133FEF7EAFA002800D0E5
:10ED60005AE143465D1B0623AD0064192374E8E6AF
:10ED70000023C14805AE436043465B1B9B000393E1
:10ED8000E3189A6931000260FFF734FD002800D0D3
:10ED900079E7039B0A27E35C95E6BA4A536C002B9C
:10EDA00000D119E10720116C013B4E1C3040C90015
:10EDB0001064536457188A58414600204E1BB60011
:10EDC000A619B18ABB88890000904944AC48FEF777
:10EDD000AFFAB38ABA889B18B382B37D013BDBB22A
:10EDE000B375002B01D101333374002800D1A8E69C
:10EDF00043465B1B9B00E35C0E278EE73A00002333
:10EE000049460C32A2180093083101339C48FEF7A2
:10EE10008FFA43465B1B9B00E3189B7D0122002B6E
:10EE200000D0023243465B1B9B00E1180A740028A5
:10EE300000D186E6E35C39E7072333700023924A6A
:10EE4000736011688E480093904A0233FEF770FA9F
:10EE50000700FEE68C4A71689388498803335B1883
:10EE6000938002233370FFF763FC0700002F00D16B
:10EE700067E61C236B43E35C62E77388844F1B01E6
:10EE8000FF180622002332707968824A00937C487A
:10EE90000233FEF74DFA0700DBE633897C4A013383
:10EEA00033810023117833734B424B41B372127C90
:10EEB00053425341F37201233370B37A002B09D0CC
:10EEC0000023734AB3729389002B03D1927B002AEB
:10EED00000D0EAE0F37A002B09D00023F3726C4BE8
:10EEE0009A8B002A03D19B7F002B00D0DCE000230B
:10EEF00033707380736043465B1B9B00E35C87E564
:10EF00003278072A00D9DCE56348910040588746EB
:10EF100001233370D1E75C4A5D4F13689C467388C8
:10EF20001B01F918486810606046486090880881A5
:10EF300002219180A4E7072A00D9C2E5574A525816
:10EF4000974605AE0C2200213000FCF75FF95B46C6
:10EF5000DB6802AA059394460A2363441900300033
:10EF6000FFF748FC0A27002868D1434602225B1BB2
:10EF70009B00E3181A716CE6494B1B789B072DD454
:10EF8000484B02279B46082200215846FCF73EF9D1
:10EF90000A2F00D06AE743465B1B9B00E35C37E522
:10EFA0003B4F3A78022A00D193E03A7C022A00D102
:10EFB00080E002203A490A780243B2430A7027E50A
:10EFC000314B324A1968009002232D48FEF7B0F900
:10EFD00001235246137166E51B68FFDE314BB81DF5
:10EFE00005AE2018320000219B46FFF775FC071E76
:10EFF000C9D14B467168214A009321480123FEF78D
:10F0000097F9002800D00E375B469A88204B1201F2
:10F010009B1801229A73BBE7434606215B1B9B00AA
:10F02000E2181174E35C41E6596801320023144888
:10F03000FEF7DAF90423070033700AE65A467168CE
:10F040000F488B880437D3800B8813814B460B4ABB
:10F0500000930123FEF76CF90300581E83415B42C5
:10F060001F4002AB5A890A4B12019B1801229A7366
:10F070007BE7C0461D1D0000B8230020A0F501005D
:10F080005C200020E4230020D8240020ACF50100FF
:10F09000B8240020A4F5010060F5010080F501000E
:10F0A0002C240020E024002001237380FFF740FB84
:10F0B0000700DBE601263601BB1959680023994693
:10F0C0000093064A02330648FEF732F94B46BB5519
:10F0D000E9E40026EFE70F271FE6C046A4F501008C
:10F0E0005C20002010B50800FFF758FC10BDC0469A
:10F0F000002243088B4274D303098B425FD3030A77
:10F100008B4244D3030B8B4228D3030C8B420DD389
:10F11000FF22090212BA030C8B4202D31212090217
:10F1200065D0030B8B4219D300E0090AC30B8B4255
:10F1300001D3CB03C01A5241830B8B4201D38B0303
:10F14000C01A5241430B8B4201D34B03C01A5241A8
:10F15000030B8B4201D30B03C01A5241C30A8B42EB
:10F1600001D3CB02C01A5241830A8B4201D38B02D6
:10F17000C01A5241430A8B4201D34B02C01A52417A
:10F18000030A8B4201D30B02C01A5241CDD2C309EC
:10F190008B4201D3CB01C01A524183098B4201D368
:10F1A0008B01C01A524143098B4201D34B01C01A53
:10F1B000524103098B4201D30B01C01A5241C308CB
:10F1C0008B4201D3CB00C01A524183088B4201D33A
:10F1D0008B00C01A524143088B4201D34B00C01A26
:10F1E0005241411A00D20146524110467047FFE792
:10F1F00001B5002000F0F0F802BDC0460029F7D0AC
:10F2000076E7704703460B437FD4002243088B42C6
:10F2100074D303098B425FD3030A8B4244D3030B9D
:10F220008B4228D3030C8B420DD3FF22090212BA62
:10F23000030C8B4202D31212090265D0030B8B42DE
:10F2400019D300E0090AC30B8B4201D3CB03C01AC8
:10F250005241830B8B4201D38B03C01A5241430BA3
:10F260008B4201D34B03C01A5241030B8B4201D393
:10F270000B03C01A5241C30A8B4201D3CB02C01AFE
:10F280005241830A8B4201D38B02C01A5241430A76
:10F290008B4201D34B02C01A5241030A8B4201D365
:10F2A0000B02C01A5241CDD2C3098B4201D3CB010C
:10F2B000C01A524183098B4201D38B01C01A5241BB
:10F2C00043098B4201D34B01C01A524103098B42BF
:10F2D00001D30B01C01A5241C3088B4201D3CB00AA
:10F2E000C01A524183088B4201D38B00C01A52418D
:10F2F00043088B4201D34B00C01A5241411A00D23D
:10F3000001465241104670475DE0CA0F00D04942A5
:10F31000031000D34042534000229C4603098B4215
:10F320002DD3030A8B4212D3FC22890112BA030A9D
:10F330008B420CD3890192118B4208D3890192111F
:10F340008B4204D389013AD0921100E08909C309A4
:10F350008B4201D3CB01C01A524183098B4201D3A6
:10F360008B01C01A524143098B4201D34B01C01A91
:10F37000524103098B4201D30B01C01A5241C30809
:10F380008B4201D3CB00C01A524183088B4201D378
:10F390008B00C01A5241D9D243088B4201D34B0093
:10F3A000C01A5241411A00D20146634652415B10D5
:10F3B000104601D34042002B00D5494270476346B6
:10F3C0005B1000D3404201B5002000F005F802BDFB
:10F3D0000029F8D016E770477047C046002310B5E3
:10F3E0009A4200D110BDCC5CC4540133F8E7000050
:10F3F000F8B5C046F8BC08BC9E467047F8B5C04694
:10F40000F8BC08BC9E467047E81F00206FFE010054
:10F4100000100200D421002072E201007CE2010011
:10F420007CE20100C6E20100ECE201000EE3010013
:10F4300032E3010002E30100FEE10100E2E101002C
:10F44000FEE10100E2E1010096E2010016E20100A6
:10F4500016E2010016E2010016E2010016E20100C8
:10F4600050E201005AE20100B6E20100A0E2010010
:10F470006AE201006AE201004CE501005AE5010080
:10F480005AE501006AE4010086E401009EE40100FF
:10F49000C8E4010040E4010012E40100F4E30100CB
:10F4A00012E40100F4E30100D6E40100E4E4010009
:10F4B000E4E40100E4E40100E4E40100E4E4010028
:10F4C0001EE501002CE501002CE4010050E40100E0
:10F4D00040E5010040E501001000030029E10100C2
:10F4E0003C230020602300208C230020C2EA01007E
:10F4F00050EA010018EA010018EA0100ECE90100F5
:10F50000ECE90100CCE90100C2EA0100BAEE010019
:10F5100066EE010062EC01002AEC0100C2EA010083
:10F520007AEE010038EE010086EC0100B0EC01003B
:10F53000FCED01009AED010070ED01004AED0100C3
:10F5400018ED0100F8EA010096EB01007CEB0100E8
:10F5500058EB0100E0EA0100A2EB01009CEB010086
:10F560009AEE010036EF010036EF010054EE010083
:10F5700016EF010038EE010038EE010010EF010037
:10F58000C2EA0100BAEE010066EE010062EC010081
:10F590002AEC0100C2EA01007AEE010038EE010017
:10F5A0000000FFFFDEC0ADDEFE011EF1DEC0ADDEFD
:08F5B000FF011EF10000000044
:08F5B80068BBFF7F01000000A9
:10F5C000000000000000000000000000000000003B
:10F5D000000000000000000000000000000000002B
:10F5E000000000000000000000000000000000001B
:10F5F000000000000000000000000000000000000B
:10F6000000000000000000000000000000000000FA
:10F6100000000000000000000000000000000000EA
:10F620000024F40005000000E9B00100C1B00100B1
:04F6300000000000D6
:10F634000000000000000000E5F0010003FF0000EE
:040000031000B22116
:00000001FF
